{
  "contractName": "PropietarioContract",
  "abi": [
    {
      "inputs": [],
      "stateMutability": "nonpayable",
      "type": "constructor"
    },
    {
      "anonymous": false,
      "inputs": [
        {
          "indexed": false,
          "internalType": "uint256",
          "name": "id",
          "type": "uint256"
        },
        {
          "indexed": false,
          "internalType": "string",
          "name": "nombre",
          "type": "string"
        },
        {
          "indexed": false,
          "internalType": "string",
          "name": "numId",
          "type": "string"
        },
        {
          "indexed": false,
          "internalType": "uint256",
          "name": "userId",
          "type": "uint256"
        }
      ],
      "name": "PropietarioCreated",
      "type": "event"
    },
    {
      "inputs": [],
      "name": "propietarioCounter",
      "outputs": [
        {
          "internalType": "uint256",
          "name": "",
          "type": "uint256"
        }
      ],
      "stateMutability": "view",
      "type": "function"
    },
    {
      "inputs": [
        {
          "internalType": "uint256",
          "name": "",
          "type": "uint256"
        }
      ],
      "name": "propietarios",
      "outputs": [
        {
          "internalType": "uint256",
          "name": "id",
          "type": "uint256"
        },
        {
          "internalType": "string",
          "name": "nombre",
          "type": "string"
        },
        {
          "internalType": "string",
          "name": "numId",
          "type": "string"
        },
        {
          "internalType": "uint256",
          "name": "userId",
          "type": "uint256"
        }
      ],
      "stateMutability": "view",
      "type": "function"
    },
    {
      "inputs": [
        {
          "internalType": "string",
          "name": "_nombre",
          "type": "string"
        },
        {
          "internalType": "string",
          "name": "_numId",
          "type": "string"
        },
        {
          "internalType": "uint256",
          "name": "_userId",
          "type": "uint256"
        }
      ],
      "name": "createPropietario",
      "outputs": [],
      "stateMutability": "nonpayable",
      "type": "function"
    },
    {
      "inputs": [
        {
          "internalType": "uint256",
          "name": "_id",
          "type": "uint256"
        }
      ],
      "name": "getPropietario",
      "outputs": [
        {
          "components": [
            {
              "internalType": "uint256",
              "name": "id",
              "type": "uint256"
            },
            {
              "internalType": "string",
              "name": "nombre",
              "type": "string"
            },
            {
              "internalType": "string",
              "name": "numId",
              "type": "string"
            },
            {
              "internalType": "uint256",
              "name": "userId",
              "type": "uint256"
            }
          ],
          "internalType": "struct PropietarioContract.Propietario",
          "name": "",
          "type": "tuple"
        }
      ],
      "stateMutability": "view",
      "type": "function"
    }
  ],
  "bytecode": "0x6080604052600080553480156200001557600080fd5b50620000946040518060400160405280600d81526020017f50726f706965746172696f2031000000000000000000000000000000000000008152506040518060400160405280600981526020017f313233343536373839000000000000000000000000000000000000000000000081525060016200009a60201b60201c565b62000431565b600080815480929190620000ae906200026e565b9190505550604051806080016040528060005481526020018481526020018381526020018281525060016000805481526020019081526020016000206000820151816000015560208201518160010190805190602001906200011292919062000185565b5060408201518160020190805190602001906200013192919062000185565b50606082015181600301559050507f1b1878affe6f6c63fe1b9ae1da3ee7bb3d35bafe251dd639336c4c438b29221660005484848460405162000178949392919062000371565b60405180910390a1505050565b8280546200019390620003fb565b90600052602060002090601f016020900481019282620001b7576000855562000203565b82601f10620001d257805160ff191683800117855562000203565b8280016001018555821562000203579182015b8281111562000202578251825591602001919060010190620001e5565b5b50905062000212919062000216565b5090565b5b808211156200023157600081600090555060010162000217565b5090565b7f4e487b7100000000000000000000000000000000000000000000000000000000600052601160045260246000fd5b6000819050919050565b60006200027b8262000264565b91507fffffffffffffffffffffffffffffffffffffffffffffffffffffffffffffffff821415620002b157620002b062000235565b5b600182019050919050565b620002c78162000264565b82525050565b600081519050919050565b600082825260208201905092915050565b60005b8381101562000309578082015181840152602081019050620002ec565b8381111562000319576000848401525b50505050565b6000601f19601f8301169050919050565b60006200033d82620002cd565b620003498185620002d8565b93506200035b818560208601620002e9565b62000366816200031f565b840191505092915050565b6000608082019050620003886000830187620002bc565b81810360208301526200039c818662000330565b90508181036040830152620003b2818562000330565b9050620003c36060830184620002bc565b95945050505050565b7f4e487b7100000000000000000000000000000000000000000000000000000000600052602260045260246000fd5b600060028204905060018216806200041457607f821691505b602082108114156200042b576200042a620003cc565b5b50919050565b610a8880620004416000396000f3fe608060405234801561001057600080fd5b506004361061004c5760003560e01c806318c63dab14610051578063606c42d014610081578063c5e89c771461009d578063db98191d146100d0575b600080fd5b61006b60048036038101906100669190610591565b6100ee565b60405161007891906106d0565b60405180910390f35b61009b60048036038101906100969190610827565b610253565b005b6100b760048036038101906100b29190610591565b610336565b6040516100c7949392919061090b565b60405180910390f35b6100d8610476565b6040516100e5919061095e565b60405180910390f35b6100f661047c565b600160008381526020019081526020016000206040518060800160405290816000820154815260200160018201805461012e906109a8565b80601f016020809104026020016040519081016040528092919081815260200182805461015a906109a8565b80156101a75780601f1061017c576101008083540402835291602001916101a7565b820191906000526020600020905b81548152906001019060200180831161018a57829003601f168201915b505050505081526020016002820180546101c0906109a8565b80601f01602080910402602001604051908101604052809291908181526020018280546101ec906109a8565b80156102395780601f1061020e57610100808354040283529160200191610239565b820191906000526020600020905b81548152906001019060200180831161021c57829003601f168201915b505050505081526020016003820154815250509050919050565b60008081548092919061026590610a09565b9190505550604051806080016040528060005481526020018481526020018381526020018281525060016000805481526020019081526020016000206000820151816000015560208201518160010190805190602001906102c79291906104a4565b5060408201518160020190805190602001906102e49291906104a4565b50606082015181600301559050507f1b1878affe6f6c63fe1b9ae1da3ee7bb3d35bafe251dd639336c4c438b292216600054848484604051610329949392919061090b565b60405180910390a1505050565b600160205280600052604060002060009150905080600001549080600101805461035f906109a8565b80601f016020809104026020016040519081016040528092919081815260200182805461038b906109a8565b80156103d85780601f106103ad576101008083540402835291602001916103d8565b820191906000526020600020905b8154815290600101906020018083116103bb57829003601f168201915b5050505050908060020180546103ed906109a8565b80601f0160208091040260200160405190810160405280929190818152602001828054610419906109a8565b80156104665780601f1061043b57610100808354040283529160200191610466565b820191906000526020600020905b81548152906001019060200180831161044957829003601f168201915b5050505050908060030154905084565b60005481565b6040518060800160405280600081526020016060815260200160608152602001600081525090565b8280546104b0906109a8565b90600052602060002090601f0160209004810192826104d25760008555610519565b82601f106104eb57805160ff1916838001178555610519565b82800160010185558215610519579182015b828111156105185782518255916020019190600101906104fd565b5b509050610526919061052a565b5090565b5b8082111561054357600081600090555060010161052b565b5090565b6000604051905090565b600080fd5b600080fd5b6000819050919050565b61056e8161055b565b811461057957600080fd5b50565b60008135905061058b81610565565b92915050565b6000602082840312156105a7576105a6610551565b5b60006105b58482850161057c565b91505092915050565b6105c78161055b565b82525050565b600081519050919050565b600082825260208201905092915050565b60005b838110156106075780820151818401526020810190506105ec565b83811115610616576000848401525b50505050565b6000601f19601f8301169050919050565b6000610638826105cd565b61064281856105d8565b93506106528185602086016105e9565b61065b8161061c565b840191505092915050565b600060808301600083015161067e60008601826105be565b5060208301518482036020860152610696828261062d565b915050604083015184820360408601526106b0828261062d565b91505060608301516106c560608601826105be565b508091505092915050565b600060208201905081810360008301526106ea8184610666565b905092915050565b600080fd5b600080fd5b7f4e487b7100000000000000000000000000000000000000000000000000000000600052604160045260246000fd5b6107348261061c565b810181811067ffffffffffffffff82111715610753576107526106fc565b5b80604052505050565b6000610766610547565b9050610772828261072b565b919050565b600067ffffffffffffffff821115610792576107916106fc565b5b61079b8261061c565b9050602081019050919050565b82818337600083830152505050565b60006107ca6107c584610777565b61075c565b9050828152602081018484840111156107e6576107e56106f7565b5b6107f18482856107a8565b509392505050565b600082601f83011261080e5761080d6106f2565b5b813561081e8482602086016107b7565b91505092915050565b6000806000606084860312156108405761083f610551565b5b600084013567ffffffffffffffff81111561085e5761085d610556565b5b61086a868287016107f9565b935050602084013567ffffffffffffffff81111561088b5761088a610556565b5b610897868287016107f9565b92505060406108a88682870161057c565b9150509250925092565b6108bb8161055b565b82525050565b600082825260208201905092915050565b60006108dd826105cd565b6108e781856108c1565b93506108f78185602086016105e9565b6109008161061c565b840191505092915050565b600060808201905061092060008301876108b2565b818103602083015261093281866108d2565b9050818103604083015261094681856108d2565b905061095560608301846108b2565b95945050505050565b600060208201905061097360008301846108b2565b92915050565b7f4e487b7100000000000000000000000000000000000000000000000000000000600052602260045260246000fd5b600060028204905060018216806109c057607f821691505b602082108114156109d4576109d3610979565b5b50919050565b7f4e487b7100000000000000000000000000000000000000000000000000000000600052601160045260246000fd5b6000610a148261055b565b91507fffffffffffffffffffffffffffffffffffffffffffffffffffffffffffffffff821415610a4757610a466109da565b5b60018201905091905056fea26469706673582212203fc0fb6c9718c80fef1b54e3076f9514e1df2e85b64b2861212087ee8ee947a964736f6c634300080a0033",
  "immutableReferences": {},
  "source": "// SPDX-License-Identifier: MIT\npragma solidity ^0.8.10;\n\ncontract PropietarioContract {\n    uint256 public propietarioCounter = 0;\n\n    struct Propietario {\n        uint256 id;\n        string nombre;\n        string numId; // numero de identificacion\n        uint256 userId; // usuario de session\n    }\n\n    event PropietarioCreated(\n        uint256 id,\n        string nombre,\n        string numId,\n        uint256 userId\n    );\n\n    mapping(uint256 => Propietario) public propietarios;\n\n    constructor() {\n        // Constructor vaco\n        createPropietario(\"Propietario 1\", \"123456789\", 1);\n    }\n\n    function createPropietario(\n        string memory _nombre,\n        string memory _numId,\n        uint256 _userId\n    ) public {\n        propietarioCounter++;\n        propietarios[propietarioCounter] = Propietario({\n            id: propietarioCounter,\n            nombre: _nombre,\n            numId: _numId,\n            userId: _userId\n        });\n        emit PropietarioCreated(\n            propietarioCounter,\n            _nombre,\n            _numId,\n            _userId\n        );\n    }\n\n    function getPropietario(uint256 _id) public view returns (Propietario memory) {\n        return propietarios[_id];\n    }\n}\n",
  "sourcePath": "D:\\server\\xampp\\htdocs\\proygrupal\\blockchain\\contracts\\PropietarioContract.sol",
  "compiler": {
    "name": "solc",
    "version": "0.8.10+commit.fc410830.Emscripten.clang"
  },
  "schemaVersion": "3.4.16",
  "updatedAt": "2025-05-08T17:21:17.702Z",
  "devdoc": {
    "kind": "dev",
    "methods": {},
    "version": 1
  },
  "userdoc": {
    "kind": "user",
    "methods": {},
    "version": 1
  }
}